{
  "abi": [
    {
      "inputs": [],
      "name": "StakeContract_TransferFailed",
      "type": "error"
    },
    {
      "inputs": [
        {
          "internalType": "address",
          "name": "token",
          "type": "address"
        },
        {
          "internalType": "uint256",
          "name": "amount",
          "type": "uint256"
        }
      ],
      "name": "stake",
      "outputs": [
        {
          "internalType": "bool",
          "name": "",
          "type": "bool"
        }
      ],
      "stateMutability": "nonpayable",
      "type": "function"
    }
  ],
  "bytecode": {
    "object": "0x608060405234801561001057600080fd5b506101d8806100206000396000f3fe608060405234801561001057600080fd5b506004361061002b5760003560e01c8063adc9772e14610030575b600080fd5b61004361003e366004610127565b610057565b604051901515815260200160405180910390f35b3360009081526020819052604081205461007290839061015f565b336000818152602081905260408082209390935591516323b872dd60e01b81526004810191909152306024820152604481018490526001600160a01b038516906323b872dd906064016020604051808303816000875af11580156100da573d6000803e3d6000fd5b505050506040513d601f19601f820116820180604052508101906100fe9190610180565b90508061011e5760405163a38624ed60e01b815260040160405180910390fd5b90505b92915050565b6000806040838503121561013a57600080fd5b82356001600160a01b038116811461015157600080fd5b946020939093013593505050565b8082018082111561012157634e487b7160e01b600052601160045260246000fd5b60006020828403121561019257600080fd5b8151801515811461011e57600080fdfea26469706673582212201218d0ff08132e9ad27449970f70b3b8fe7734ea3b44fa4efb6417fea0379db764736f6c63430008130033",
    "linkReferences": {}
  },
  "methodIdentifiers": {
    "stake(address,uint256)": "adc9772e"
  },
  "id": 18
}